:100000004AEF08F0F76A140FF66E000EF7220900A7
:10001000F5501200000000000000005F0000000723
:10002000000700147F147F14242A7F2A1223130848
:10003000646236495620500008070300001C224124
:10004000000041221C002A1C7F1C2A08083E0808C8
:100050000080703000080808080800006060002078
:10006000100804023E5149453E00427F400072495B
:100070004949462141494D331814127F10274545FF
:1000800045393C4A49493141211109073649494915
:1000900036464949291E0000140000004034000083
:1000A00000081422411414141414004122140802EC
:1000B000015909063E415D594E7C1211127C7F495F
:1000C0004949363E414141227F4141413E7F4949B4
:1000D00049417F090909013E414151737F080808E0
:1000E0007F00417F41002040413F017F08142241B1
:1000F0007F404040407F021C027F7F0408107F3E0B
:100100004141413E7F090909063E4151215E7F0977
:1001100019294600F76A240FF66E010EF72209002E
:10012000F5501200264949493203017F01033F403F
:1001300040403F1F2040201F3F4038403F6314088D
:10014000146303047804036159494D43007F41411E
:10015000410204081020004141417F0402010204D1
:100160004040404040000307080020545478407F3E
:10017000284444383844444428384444287F385478
:1001800054541800087E090218A4A49C787F08041F
:10019000047800447D40002040403D007F1028440A
:1001A0000000417F40007C047804787C08040478D7
:1001B0003844444438FC1824241818242418FC7C9F
:1001C00008040408485454542404043F44243C4084
:1001D00040207C1C2040201C3C4030403C442810E7
:1001E00028444C9090907C4464544C440008364120
:1001F00000000077000000413608000201020402FE
:10020000F76A100FF66E020EF7220900F550120081
:1002100067616D65206F76657200636F6C756D6EDA
:1002200061203D202575000066696C61203D202518
:100230007500706F743D20257500040EEA6E320E55
:10024000E96EEF500DE0060E016E006A002EFED73B
:10025000012EFBD77B0E006E002EFED7EF2EF3D7BC
:100260001200C69E9E9637C4C9FF020EC6BE05D0B8
:100270009EA6FED7000EC5BC010E016E1200040141
:10028000366BC580C5B0FED704C037F40001E9DF86
:1002900036C437F4E6DF35C437F4E3DFC584C5B4CC
:1002A000FED712002FC405F030C404F00A0E04017A
:1002B000326F0001C2DF8A9493940A0E0401326FF8
:1002C0000001BBDF8A84AE0E0401356F0001D7DF69
:1002D000D50E0401356F0001D2DF800E0401356FA9
:1002E0000001CDDFA80E0401356F0001C8DF3F0E0D
:1002F0000401356F0001C3DFD30E0401356F000127
:10030000BEDF0401356B0001BADF400E0401356F1A
:100310000001B5DF8D0E0401356F0001B0DF04016F
:100320002F2D06D0100E356F0001A9DF05D0040176
:10033000140E356F0001A3DF200E0401356F00019C
:100340009EDF0401356B00019ADFA10E0401356FB9
:10035000000195DFC80E0401356F000190DFDA0E51
:100360000401356F00018BDF120E0401356F0001AF
:1003700086DF810E0401356F000181DF04012F2D1E
:1003800006D09F0E356F00017ADF05D00401CF0E35
:10039000356F000174DFD90E0401356F00016FDF86
:1003A00004012F2D06D0220E356F000168DF05D025
:1003B0000401F10E356F000162DFDB0E0401356FC1
:1003C00000015DDF400E0401356F000158DFA40E0F
:1003D0000401356F000153DFA60E0401356F0001E3
:1003E0004EDF2E0E0401356F000149DFAF0E040110
:1003F000356F000144DF066A076A010E086ECCEF14
:1004000009F00401306B2F6B305103080BE30A0E27
:100410002F25E96E000E3021EA6EEF6A2F2BD8B43B
:10042000302BF2D700011200210E0401356F0001BC
:1004300026DF0401356B000122DF7F0E0401356FDA
:1004400000011DDF220E0401356F000118DF0401D9
:10045000356B000114DF070E0401356F00010FDF5B
:100460000401336B326B335103082EE3C580C5B0F2
:10047000FED704C037F40001F4DE400E0401376FEC
:100480000001EFDE0401346B34510F0812E30A0E51
:100490003225E96E000E3321EA6EEFCF35F435C414
:1004A00037F40001DEDE0401322BD8B4332B342BB9
:1004B000EBD73251D8B433073207C584C5B4FED761
:1004C000322BD8B4332BCFD70001120004016F5167
:1004D0007F0803E370513F0801E26ED0715336E0AC
:1004E0007031006E003200321F0E00160050736B28
:1004F000726F7235026E7335036E02360336023642
:100500000336023603360236033602360336023627
:100510000336800E021602506F25726F000E032004
:10052000736F0A0E7225E96E000E7321EA6E705128
:10053000070B016E010E006E015204E0D8900036E8
:10054000012EFCD70050EF10EF6E36D07031006EE8
:10055000003200321F0E00160050736B726F72353E
:10056000026E7335036E02360336023603360236E8
:100570000336023603360236033602360336800E61
:10058000021602506F25726F000E0320736F0A0E61
:100590007225E96E000E7321EA6E7051070B016E31
:1005A000010E006E015204E0D8900036012EFCD7F7
:1005B0000050FF0AEF14EF6E000112000401619178
:1005C0005A515E5D6F6F5B515F59706F036E6F5173
:1005D00070AF08D0000ED8806F55006E000E7055B9
:1005E000036E00506F6F03C070F458515C5D716F03
:1005F00059515D59726F036E715172AF08D0000E80
:10060000D8807155006E000E7255036E0050016E59
:1006100003AE03D070AF0AD002D070BF08D0035031
:10062000705D05E303E16F51015C01E2618161A14D
:1006300018D059C468F458C467F45BC459F45AC458
:1006400058F468C45BF467C45AF45DC46AF45CC4CB
:1006500069F45FC45DF45EC45CF46AC45FF469C4A9
:100660005EF45DAF03D059AF0AD002D059BF1FD09E
:100670005D51595D1CE303E158515C5D18E259C4BA
:100680006CF458C46BF45DC459F45CC458F46CC485
:100690005DF46BC45CF45BC46EF45AC46DF45FC467
:1006A0005BF45EC45AF46EC45FF46DC45EF45851DA
:1006B0005C5D006E59515D5900C063F45A515E5D36
:1006C0006F6F5B515F59706F036E6F5170AF08D0E1
:1006D000000ED8806F55006E000E7055036E0050EE
:1006E000646FD8906331036A656F03C066F45BAFD3
:1006F00003D05FAF0AD002D05FBF0AD05B515F5D0D
:1007000007E303E15E515A5D03E2010E626F01D01F
:10071000626959AF03D05DAF0AD002D05DBF47D048
:1007200059515D5D44E303E158515C5D40E361A1D3
:1007300015D060530AE05AC46FF458C470F4010E27
:10074000716F0001C3DE08D004015AC46FF458C4AD
:1007500070F4716B0001BADE14D0040160530AE03A
:1007600058C46FF45AC470F4010E716F0001AEDE0C
:1007700008D0040158C46FF45AC470F4716B0001BE
:10078000A5DE04016451655F000E665B66AF0BD0A9
:10079000036A6251E8BE03065A2703505B23635184
:1007A0006527000E6623582BD8B4592BB2D7000109
:1007B00012000A0E04013325346F596B32C458F409
:1007C0005B6B33C45AF45D6B32C45CF45F6B5E6F79
:1007D000010E606F0001F2DE120004013351016A64
:1007E000325D03E232C400F00CD0006A080E346FB0
:1007F000323700363351005CD8B0006E0136342FEA
:10080000F7D70001120004012F35006E00360036C4
:10081000F80E0016C250C70B0010C26EC284C2B4DC
:10082000FED7C4CF31F4040E006E002EFED700D0E8
:1008300031C432F4050E336F0001CFDF01C031F453
:1008400030C432F431C433F4B4DF040131C401F0F4
:1008500000011200040152515419800B566F52AF1F
:1008600005D0511F521F512BD8B4522B54AF05D075
:10087000531F541F532BD8B4542B51515303F3CF50
:1008800001F0F4CF00F05403F3500026525153030B
:10089000F3500020026E56AF05D0011E021E012A41
:1008A000D8B4022A00011200040155515425FF0F4B
:1008B000576F596B53C458F45B6B54C45AF45D6B57
:1008C00053C45CF45F6B5E6F56C460F4000176DE67
:1008D0001200010ED88004013D55436F000E3E55B5
:1008E000446F466B010E456F5269FE0E516F3EC458
:1008F00054F43DC453F40001ADDF02C048F401C01C
:1009000047F404014A6B496B3EC44CF43DC44BF4BC
:100910004AAF03D04CAF0CD002D04CBFDBD04A5111
:100920004C5DD8A0D7D004E14B51495DD8B0D2D0AE
:1009300044BF0CD04B51D8B44C074B07020E47278D
:10094000000E48234751432748514423492BD8B42C
:100950004A2B020E4527000E462345514327465198
:1009600044233FA15AD0495139254D6F4A513A216C
:100970004E6F4B513B5D4F6F4C513C59506F526B1A
:10098000020E516F4CC454F44BC453F4000162DFA7
:1009900002C052F401C051F4010E04015127000EAF
:1009A000522340515127415152234DC453F44FC457
:1009B00054F451C455F442C456F4000175DF0401E7
:1009C0004B5139254D6F4C513A214E6F49513B5D8A
:1009D0004F6F4A513C59506F526B020E516F4AC4CF
:1009E00054F449C453F4000135DF02C052F401C08D
:1009F00051F4010E04015127000E5223405151279A
:100A0000415152234DC453F44FC454F451C455F4CE
:100A100042C456F4000148DF04013FA35AD04951B3
:100A2000395D4D6F4A513A594E6F4B513B5D4F6F97
:100A30004C513C59506F526B020E516F4CC454F4E0
:100A40004BC453F4000106DF02C052F401C051F45C
:100A5000010E04015127000E5223405151274151EC
:100A600052234DC453F44FC454F451C455F442C4FA
:100A700056F4000119DF04014B51395D4D6F4C51A3
:100A80003A594E6F49513B5D4F6F4A513C59506F37
:100A9000526B020E516F4AC454F449C453F400011E
:100AA000D9DE02C052F401C051F4010E04015127F5
:100AB000000E522340515127415152234DC453F44B
:100AC0004FC454F451C455F442C456F40001ECDE52
:100AD00004011ED70001A5EF05F004013651345D75
:100AE000396F375135593A6F526B020E516F37C417
:100AF00054F436C453F40001ADDE02C03CF401C02E
:100B00003BF4010E04013B27000E3C2332C453F496
:100B100039C454F43BC455F438C456F40001C4DE5F
:100B200033C43AF432C439F435C43CF434C43BF42D
:100B300037C43EF436C43DF4030E04013F6F416BED
:100B4000406B38C442F40001C4D61200098232C49A
:100B500034F40F0E04013225345D01E009E2345112
:100B6000335D02E1099204D0342B0001F2D7040175
:100B7000000E09B2010E016E00011200010E040107
:100B8000205DFC0F6AE2040F00019DEF06F00401F6
:100B9000336B30C432F4356B31C434F4376B030E2D
:100BA000366F010E386F000198DF3EDC050E040140
:100BB000326F00011DEC01F004012207212B4DD002
:100BC0000401336B30C432F4356B31C434F4376B09
:100BD000030E366F010E386F00017FDF25DC050E36
:100BE0000401326F00011DEC01F00401222B212BC6
:100BF00034D00401336B30C432F4356B31C434F477
:100C0000376B030E366F010E386F000166DF0CDCA8
:100C1000050E0401326F00011DEC01F004012207F2
:100C200021071BD00401336B30C432F4356B31C45F
:100C300034F4376B030E366F010E386F00014DDF51
:100C400014EC02F0050E0401326F00011DEC01F0FE
:100C50000401222B210701D004013151040805E3CE
:100C6000202D03D0020E206F65D031513B0806E2E3
:100C70002051020803E1010E206F5CD030517A0848
:100C80000FE2202D0DD0030E206F1FC432F422C4BA
:100C900033F400015BDF099201B009824AD00401FC
:100CA0003151040806E32051030803E1040E206FCC
:100CB00041D031513B0806E22051040803E1030E04
:100CC000206F38D03051060810E3205103080DE1A1
:100CD000010E206F1EC432F422C433F4000136DF4B
:100CE000099201B0098225D004013051060810E3B1
:100CF000205104080DE1020E206F1EC432F422C4FC
:100D000033F4000123DF099201B0098212D00401FB
:100D100030517A080FE2205102080CE1040E206FD6
:100D20001FC432F422C433F4000110DF099201B071
:100D30000982040100010BEF0AF0E824F76AF73694
:100D4000550FF66E0D0EF7220A00F550FA6E0800E8
:100D5000F550F96E8E0BC00BF20B240C04013651CA
:100D60007F0803E337513F0801E204D036C406F0A0
:100D700037C407F00001C6EF07F00401365302E163
:100D8000010E366F36C408F00001C9EF07F0036AA0
:100D900004013FC444F403C045F441513F2545BF1D
:100DA00004D0455311E1445D0FE244C453F440C400
:100DB00054F442C455F443C456F4000175DD0401F3
:100DC000442BD8B4452BE9D7000112000401375158
:100DD000200805E1065203E109A001D0CFD0375128
:100DE000070804E1076A07C006F0C8D037510808B1
:100DF0000AE10850060DF350065C05E30850060DA5
:100E0000F350065EBBD037510D0802E1066AB6D03A
:100E100037510A080CE10850080DF3500726085016
:100E2000070DF3500724400801E2076AA7D03751A5
:100E30001F0803E237517E0802E23F0E376F396B1D
:100E40003951040865E33751520812E3200E375D2B
:100E5000050DF3503925036AF2CF3CF4F29E0001F0
:100E600002EC00F004013CBFF28E016E3B6F10D02B
:100E7000530E375D050DF3503925036AF2CF3CF46C
:100E8000F29E00018AEC00F004013CBFF28E3B6F41
:100E90003A6B3A5106083AE33BA102D0388101D0BF
:100EA0003891082C14D0395106243C6F3A5107244C
:100EB0003D6F000E38B1010E3E6F3CC46FF43DC46F
:100EC00070F4716F000166EC02F01AD00401395120
:100ED0000802F35006243C6F3A510802F3500724ED
:100EE0003D6F000E38B1010E3E6F3CC43FF43DC46F
:100EF00040F408C041F408C042F4436F000147DFEA
:100F000004013A513A2BD8903B33C3D7392B98D7A9
:100F10000850050DF35006243C6F0850070DF3CF21
:100F20003DF43CC43FF407C040F408C041F43DC464
:100F300042F4436B00012BDF0850060DF3500626E8
:100F40000850060DF350800F065C03E002E3800EAC
:100F5000066E09A012D00850050DF3500624800833
:100F60000CE2066A0850080DF35007260850070DDA
:100F7000F3500724400801E2076A04010001C9EFA9
:100F800007F031C436F432C437F4E8D635C436F449
:100F9000F4D634C403F0040133C4E9FF34C4EAFFD7
:100FA000EF5212E034C403F03351332BD8B4342B56
:100FB000E96E03C0EAFFEFCF36F436C437F4000120
:100FC00005D70001E6D704010001120024C4EAFF9E
:100FD00023C4E9FF040132C4EFFFE92AD8B4EA2AA6
:100FE000EF6A232BD8B4242B000112000900F6CF9E
:100FF00030F4F7CF31F4F5CF32F4E8DF30C4F6FF48
:1010000031C4F7FF04012F2F01D002D00001EED729
:101010000001120001502FC432F4640E0401336F3A
:101020000001EDEC03F000C02FF40150300E08E198
:10103000040130A30FD030B70DD030B9200E04D04A
:101040000401309730993081012601C032F400014B
:10105000BDDF04012FC432F40A0E336F0001EDEC42
:1010600003F000C02FF40150300E08E1040130B746
:101070000AD030A108D030B9200E0001012601C0ED
:1010800032F4A4DF0401300E2F272FC432F4000104
:101090009DDF1200F86AD09E948694880C0EC86E6C
:1010A000280EC66EC79EC79C098004011E6B1F6B6D
:1010B000010E206F0F0E216F226F0992246B236B9C
:1010C000C180C182C184C19638D13F400A000380EB
:1010D0008080800FC00004808080C0C03FC00008B6
:1010E0008080C0E0F0F8FCF8E011C00005C080038B
:1010F0008000808004C00005C080048000FFFFFFE6
:1011000004C00004C0800F8000008080000080FFC9
:10111000FF80800080800004C08003800080800504
:10112000C0000E80808000008C8E84000080F8F863
:10113000F8800DC0000CC0F00C80E0E0C08000E042
:10114000FCFEFFFFFF7F05C0FF0EC0000380FEFF17
:10115000C704C001088083FFFF00007CFEC704C0F5
:1011600001358083FFFFFF0038FEC7830101018343
:10117000C7FFFF000001FFFF010100FFFF070101A2
:101180000100007FFF80000000FFFF7F0000FFFFE5
:10119000FF000001FFFFFF010DC0000580030F3FAE
:1011A0007F7F07C0FF0C80E7C7C78F8F9FBFFFFF00
:1011B000C3C0F005C0FF08C0FC0880F8F8F0F0E0FC
:1011C000C0000105C003038001030304C0000180C7
:1011D0000104C0030880010103010000000104C0F4
:1011E000030E80010103030000000303000000035D
:1011F0000307C00001800105C0030D80010000004D
:1012000001030100000003030111C000058080C03C
:10121000E0F0F905C0FF0C803F1F0F87C7F7FFFF05
:101220001F1F3DFC04C0F802807C7D08C0FF0780C2
:101230007F3F0F0700303016C0000380FEFEFC1613
:10124000C0000280E0C00BC0000280303015C0003A
:101250000280C0FE09C0FF0C807F7F3F1F0F071F69
:101260007FFFFFF8F805C0FF0780FEF8E0000000F0
:101270000108C0001F80FEFE000000FCFEFC0C0602
:10128000060EFCF80000F0F81C0E0606060CFFFF28
:10129000FF0000FEFE04C0003180FCFEFC00183C94
:1012A0007E66E6CE84000006FFFF0606FCFEFC0C10
:1012B0000606060000FEFE0000C0F8FC4E4646464C
:1012C0004E7C7840183C76E6CECC8014C000058079
:1012D00001070F1F1F04C03F03801F0F030CC00036
:1012E00008800F0F0000000F0F0F04C0002C800FAC
:1012F0000F000003070E0C18180C060F0F0F00004C
:10130000010F0E0C180C0F070100040E0C180C0F27
:10131000070000000F0F00000F0F0F06C00016801F
:101320000F0F00000007070C0C181C0C0606000429
:101330000E0C180C0F0780C00000000EF86E100E87
:10134000F76ECA0EF66E0900F550006E000A13E043
:101350000900F550016EE8BE05D00F0BEA6E0900DA
:10136000F5CFE9FF01BC090001AC0900F5CFEEFFA4
:10137000004EE9D7F9D7F86AC190C192C194C196DD
:10138000C19CC29CC29EC19EC280020E2F6F780E6D
:10139000306F000152EF01F0640E0401326F000162
:1013A0001DEC01F001EC02F014EC02F00A0E040155
:1013B000326F336F0001D9EC03F014EC02F0640ECD
:1013C0000401326F00011DEC01F001EC02F0140E7B
:1013D0000401326F336F0001D9EC03F014EC02F01A
:1013E00001EC02F004012F6B306B000103EC04F000
:1013F00001C01EF404012F6B7F0E306F000103EC5F
:1014000004F001C01FF420C42FF421C430F422C41E
:1014100031F4BEEF05F009A294D001EC02F0040E05
:10142000EA6E250EE96EF2CF2FF4F29E0A0E016EDF
:10143000F76A000E00EC01F00A000900F5CFEEFF9C
:10144000012EFBD704012FBFF28E280E316F1E0E26
:10145000326F040E346F250E336F010E356F0001AD
:1014600090DD040E0401246F0A0E236F1A0EF66E2F
:10147000020EF76E0A0E2F6F0001B8DD21C42FF4A3
:101480001B0E0401306F0001C5DD280E0401316F11
:10149000326F040E346F0A0E336F010E356F000188
:1014A00070DD040E0401246F0A0E236F280EF66E01
:1014B000020EF76E070E2F6F000198DD22C42FF485
:1014C0001B0E0401306F0001A5DD280E0401316FF1
:1014D000326F040E346F0A0E336F010E356F000148
:1014E00050DD040E0401246F140E236F320EF66ECD
:1014F000020EF76E050E2F6F000178DD1EC42FF46B
:101500001B0E0401306F000185DD280E0401316FD0
:10151000320E326F040E346F140E336F010E356FBE
:1015200000012FDD14EC02F0280E04012F6FFA0EDB
:10153000326F00011DEC01F004012F2FF8D7099242
:0615400000014ED703007C
:020000040030CA
:0E00000000220E0E000181000FC00FE00F4025
:00000001FF
;PIC18F452
;CRC=D5C1  CREATED="17-jun.-21 22:19"
